:100000000C9434000C9449000C9449000C94490061
:100010000C9449000C9449000C9449000C9449003C
:100020000C9449000C9449000C9449000C9449002C
:100030000C9449000C9449000C9449000C9449001C
:100040000C9449000C9449000C9449000C9449000C
:100050000C9449000C9449000C9449000C944900FC
:100060000C9449000C94490011241FBECFEFD8E036
:10007000DEBFCDBF11E0A0E0B1E0EEE8F1E002C0EC
:1000800005900D92AA35B107D9F70E946C000C9427
:10009000C5000C940000FC0140E050E0A5E090E4B5
:1000A0000DC08A2F8A95F1F72F5F3F4F2E173F071C
:1000B000C0F38BB189278BB94E0F5F1F46175707C7
:1000C00018F420E030E0F2CF089535E0232F2A9590
:1000D000F1F70197D9F708951F93CF93DF93569ABD
:1000E0000E94A500C0E0D8E7CE01EC010E94BE004E
:1000F000182F80EFC030D80711F48FE501C08DE2D2
:100100000E94B600A0E0B0E0FD01E45CFE4F8081FB
:10011000181751F4AA0FBB1FA050BF4F8D919C918F
:10012000BE010E944B00E2CF1196AE31B10561F7DE
:100130001B3519F4C0E0D0EFD9CF80E098E71D352A
:10014000A1F2CE010E946500CFCF1092C50087E6D4
:100150008093C400E0ECF0E080818D7F808388E1B3
:100160008093C10086E08093C2000895982F80910B
:10017000C00085FFFCCF9093C60008958091C00019
:0E01800087FFFCCF8091C6000895F894FFCF52
:10018E00AC0282025B0237021402F401D601B901FD
:10019E009F0185016E01580143012F011D010C01C4
:1001AE00FB00EC00DE00D000C400B800AD00A200E1
:1001BE0098008F0086007E0076006F007177657262
:1001CE00747975696F706173646667686A6B6C3B8E
:0A01DE00277A786376626E6D2C2E8E
:00000001FF
