:100000000C9434000C9449000C9449000C94490061
:100010000C9449000C9449000C9449000C9449003C
:100020000C9449000C9449000C9449000C9449002C
:100030000C9449000C9449000C9449000C9449001C
:100040000C9449000C9449000C9449000C9449000C
:100050000C9449000C9449000C9449000C944900FC
:100060000C9449000C94490011241FBECFEFD8E036
:10007000DEBFCDBF11E0A0E0B1E0EAECF1E002C0EC
:1000800005900D92A43BB107D9F70E946C000C9427
:10009000E3000C940000FC0140E050E0A5E090E497
:1000A0000DC08A2F8A95F1F72F5F3F4F2E173F071C
:1000B000C0F38BB189278BB94E0F5F1F46175707C7
:1000C00018F420E030E0F2CF089535E0232F2A9590
:1000D000F1F70197D9F70895FF920F931F93569A5E
:1000E0000E949900FF241CC00F2D10E0000F111F6B
:1000F00000501F4FF8018081918160E078E70E94F5
:100100004B00F80180810E94B2008DE00E94AA009D
:100110008AE00E94AA0080E098E70E946500F394BC
:10012000F3EBFF1508F780E090E00E946500FF24E4
:10013000DBCF1092C50087E68093C400E0ECF0E0CE
:1001400080818D7F808388E18093C10086E08093E9
:10015000C2000895982F8091C00085FFFCCF909336
:10016000C6000895282F8091C00085FFFCCF822F04
:1001700064E60E94D700805D8093C6008091C00035
:1001800085FFFCCF822F6AE00E94D7000E94D70033
:10019000905D9093C6008091C00085FFFCCF822FB8
:1001A0006AE00E94D700905D9093C6000895991B65
:1001B00079E004C0991F961708F0961B881F7A955E
:0A01C000C9F780950895F894FFCF69
:1001CA00A861BD5B2E56F5500E4C72471E430D3F7B
:1001DA003B3BA43745341A31212E552BB5283E26F0
:1001EA00EC23BF21B41FC81DFA1B481AB0183217D6
:1001FA00CA1578143A131012F810F10FF90E110EED
:10020A00370D6A0CA90BF40A4A0AAB0915098808C2
:10021A00040887071207A5063E06DD0582052C0598
:10022A00DC0491044A040704C9038E035703230319
:10023A00F202C5029A0271024B0228020602E70183
:10024A00C901AE0194017B0164014F013A01270102
:10025A0015010401F500E600D800CB00BE00B3008A
:10026A00A8009E0094008B0083007B0073006C0042
:04027A0066005F00BB
:00000001FF
