:100000000C9434000C943E000C943E000C943E0082
:100010000C943E000C943E000C943E000C943E0068
:100020000C943E000C943E000C943E000C943E0058
:100030000C943E000C943E000C943E000C943E0048
:100040000C943E000C943E000C943E000C943E0038
:100050000C943E000C943E000C943E000C943E0028
:100060000C943E000C943E0011241FBECFEFD8E04C
:10007000DEBFCDBF0E9440000C9451000C940000E4
:1000800052985A9A8FE384B980E09FE34A9902C05C
:1000900080E0FCCF8823D1F785B1892785B981E03D
:0600A000F5CFF894FFCF3C
:00000001FF
