:100000000C9434000C94EC000C9451000C945100AE
:100010000C9451000C9451000C9451000C9451001C
:100020000C9451000C9451000C9451000C9451000C
:100030000C9451000C9451000C9451000C945100FC
:100040000C9451000C9451000C9451000C945100EC
:100050000C9451000C9453000C9451000C945100DA
:100060000C9451000C94510011241FBECFEFD8E026
:10007000DEBFCDBF11E0A0E0B1E0EEE1F3E002C0F1
:1000800005900D92AE31B107D9F711E0AEE1B1E0C4
:1000900001C01D92A232B107E1F70E948E000C94BC
:1000A0008D010C9400001F920F920FB60F92112435
:1000B0002F933F938F939F938091790090E090933B
:1000C000200180931F0120911F0130912001C9015F
:1000D000880F991F820F931F880F991F892F8F5F99
:1000E000809321019F918F913F912F910F900FBE8F
:1000F0000F901F901895ECE7F0E080818366808375
:10010000EAE7F0E0808110828081876080838081CF
:10011000886A80838081806480830895DF92EF9273
:10012000FF920F931F93CF93DF938FE384B95A9A73
:100130000E9427010E947B00809169008260809369
:100140006900E89A7894C0E9D1E027E0D22E9FE1D7
:10015000E92E8FE0F82E0FE313E080911E01882333
:10016000C9F120911F01309120018091210190E07F
:100170002817390751F080911F01909120010E94AA
:10018000490180E091E00E94380180912101833093
:1001900091F0843028F4813051F0823099F409C014
:1001A000853069F0853048F0863061F40AC085B941
:1001B00009C015B907C0D5B805C0F5B803C0E5B882
:1001C00001C005B984EC99E0FE013197F1F7019780
:1001D000D9F7C3CF15B8C1CF1F920F920FB60F92A8
:1001E00011242F933F934F935F936F937F938F933C
:1001F0009F93AF93BF93EF93FF9380E49CE90197A4
:10020000F1F74A9913C080911E0191E089278093EC
:100210001E0183E091E00E94380180911E0190E070
:100220000E94490180E091E00E943801FF91EF9126
:10023000BF91AF919F918F917F916F915F914F91FE
:100240003F912F910F900FBE0F901F901895109215
:10025000C50087E68093C400E0ECF0E080818D7FEC
:10026000808388E18093C10086E08093C200089576
:10027000AC0120E007C08091C00085FFFCCFE09377
:10028000C6002F5FFA01E20FF11DE081EE2399F71E
:1002900008959C018091C00085FFFCCFC90164E6F0
:1002A00070E00E947901CB016AE070E00E94790160
:1002B000805D8093C6008091C00085FFFCCFC9019E
:1002C0006AE070E00E947901CB016AE070E00E9470
:1002D0007901805D8093C6008091C00085FFFCCFCE
:1002E000C9016AE070E00E947901805D8093C600D8
:1002F0000895AA1BBB1B51E107C0AA1FBB1FA6176D
:10030000B70710F0A61BB70B881F991F5A95A9F7BE
:0E03100080959095BC01CD010895F894FFCF23
:10031E000D0A00425554544F4E205072657373654A
:0E032E00642E0D0A436865636B203D200000BD
:00000001FF
