:100000000C9434000C9451000C9451000C94510049
:100010000C9453000C9451000C9451000C9451001A
:100020000C9451000C9451000C9451000C9451000C
:100030000C9451000C9451000C9451000C945100FC
:100040000C9451000C9451000C9451000C945100EC
:100050000C9451000C9451000C9451000C945100DC
:100060000C9451000C94510011241FBECFEFD8E026
:10007000DEBFCDBF11E0A0E0B1E0E6E8F2E002C0F3
:1000800005900D92AE31B107D9F711E0AEE1B1E0C4
:1000900001C01D92A032B107E1F70E9473000C94D9
:1000A00041010C9400001F920F920FB60F92112481
:1000B0008F939F93319B0FC080911E0190911F01E0
:1000C000019690931F0180931E01399A419885E013
:1000D0008A95F1F73998D99A9F918F910F900FBE19
:1000E0000F901F9018950F931F93CF93DF938091DC
:1000F000680082608093680080916C0082608093C9
:100100006C000E94BE0084B18F6384B980E091E0EE
:100110000E94CF0000E1C0E9D1E01FE310921F016F
:1001200010921E014198399A802F8A95F1F7419AD1
:100130003998789484EF91E0FE013197F1F70197B7
:10014000D9F7F89480911E0190911F01805293403D
:1001500010F415B901C015B880911E0190911F01CE
:100160000E94E0008BE191E00E94CF0088E893E1DB
:10017000FE013197F1F70197D9F7D0CF1092C50062
:1001800087E68093C400E0ECF0E080818D7F80837F
:1001900088E18093C10086E08093C2000895AC019D
:1001A00020E007C08091C00085FFFCCFE093C6002F
:1001B0002F5FFA01E20FF11DE081EE2399F7089518
:1001C0009C018091C00085FFFCCFC90160E177E20E
:1001D0000E942D01605D6093C6008091C00085FF84
:1001E000FCCFC90168EE73E00E942D01CB016AE0EB
:1001F00070E00E942D01805D8093C6008091C00058
:1002000085FFFCCFC90164E670E00E942D01CB019F
:100210006AE070E00E942D01805D8093C6008091AD
:10022000C00085FFFCCFC9016AE070E00E942D018B
:10023000CB016AE070E00E942D01805D8093C600D2
:100240008091C00085FFFCCFC9016AE070E00E9488
:100250002D01805D8093C6000895AA1BBB1B51E150
:1002600007C0AA1FBB1FA617B70710F0A61BB70B26
:10027000881F991F5A95A9F780959095BC01CD01CB
:060280000895F894FFCF81
:100286003D3D3D3D5B20544F5543482053454E531D
:0E0296004F52205D3D3D3D3D0D0A000D0A001A
:00000001FF
