:100000000C9434000C9449000C9449000C94490061
:100010000C9449000C9449000C9449000C9449003C
:100020000C9449000C9449000C9449000C9449002C
:100030000C9449000C9449000C9449000C9449001C
:100040000C9449000C9449000C9449000C9449000C
:100050000C9449000C9449000C9449000C944900FC
:100060000C9449000C94490011241FBECFEFD8E036
:10007000DEBFCDBF11E0A0E0B1E0E4E3F1E002C0FB
:1000800005900D92AC32B107D9F70E944B000C9449
:1000900098000C9400001F93CF93DF9352985A9AC4
:1000A0008FE384B90E94760080E091E00E9487008F
:1000B00021E0C0E4DCE91FE34A9B02C020E0FCCF62
:1000C0002223D1F7CE010197F1F74A99F5CF95B1E7
:1000D00085B1812785B9992319F482E191E002C0A5
:1000E0008EE191E00E94870021E0E6CF1092C500EA
:1000F00087E68093C400E0ECF0E080818D7F808310
:1001000088E18093C10086E08093C2000895AC012D
:1001100020E007C08091C00085FFFCCFE093C600BF
:100120002F5FFA01E20FF11DE081EE2399F70895A8
:04013000F894FFCF71
:10013400496E6974696174696E6720554152540D42
:100144000A004C4544206973204F4E0D0A004C456B
:0C01540044206973204F46460D0A00004D
:00000001FF
