:100000000C9434000C9449000C9449000C94490061
:100010000C9449000C9449000C9449000C9449003C
:100020000C9449000C9449000C9449000C9449002C
:100030000C9449000C9449000C9449000C9449001C
:100040000C9449000C9449000C9449000C9449000C
:100050000C9449000C9449000C9449000C944900FC
:100060000C9449000C94490011241FBECFEFD8E036
:10007000DEBFCDBF11E0A0E0B1E0E2E4F2E002C0FB
:1000800005900D92AC33B107D9F70E944B000C9448
:100090001F010C9400000F931F93CF93DF930E94D6
:1000A000B90080917C00806480937C0080917C000A
:1000B000806280937C0080917A0010927A00809117
:1000C0007A00876080937A0080917A0080688093BC
:1000D0007A0080917A00806480937A0080E29EE4C6
:1000E0000197F1F780E091E00E94CA00C0E9D1E0F9
:1000F00080917C00807F836080937C0080917A0077
:10010000806480937A0080917A0086FDFCCF009114
:10011000790080917C00807F80937C0080917A00C0
:10012000806480937A0080917A0086FDFCCF1091E4
:1001300079008BE191E00E94CA00802F90E00E943C
:10014000DB0088E291E00E94CA008BE291E00E940D
:10015000CA00812F90E00E94DB0088E391E00E94BA
:10016000CA0088E59BE1FE013197F1F70197D9F7C5
:10017000BFCF1092C50087E68093C400E0ECF0E0AA
:1001800080818D7F808388E18093C10086E08093A9
:10019000C2000895AC0120E007C08091C00085FF37
:1001A000FCCFE093C6002F5FFA01E20FF11DE08162
:1001B000EE2399F708959C018091C00085FFFCCF44
:1001C000C90164E670E00E940B01CB016AE070E0B7
:1001D0000E940B01805D8093C6008091C00085FF66
:1001E000FCCFC9016AE070E00E940B01CB016AE01C
:1001F00070E00E940B01805D8093C6008091C0007A
:1002000085FFFCCFC9016AE070E00E940B01805DB0
:100210008093C6000895AA1BBB1B51E107C0AA1F0B
:10022000BB1FA617B70710F0A61BB70B881F991F97
:100230005A95A9F780959095BC01CD010895F89441
:02024000FFCFEE
:1002420057454C434F4D4520544F20414E414C4F52
:10025200472054455354210D0A0A00504F5420564A
:10026200414C5545203D20000D0A004C4452205679
:0C027200414C5545203D20000D0A0A00BB
:00000001FF
