:100000000C9434000C9449000C9449000C94490061
:100010000C9449000C9449000C9449000C9449003C
:100020000C9449000C9449000C9449000C9449002C
:100030000C9449000C9449000C9449000C9449001C
:100040000C9449000C9449000C9449000C9449000C
:100050000C9449000C9449000C9449000C944900FC
:100060000C9449000C94490011241FBECFEFD8E036
:10007000DEBFCDBF11E0A0E0B1E0E0E2F1E002C000
:1000800005900D92AE31B107D9F70E944B000C9448
:100090008E000C9400001F938FE384B90E945D00D2
:1000A00080E091E00E947D000E947600182F0E945F
:1000B0006E001695169515B9F7CF1092C50087E614
:1000C0008093C400E0ECF0E080818D7F808388E144
:1000D0008093C10086E08093C2000895982F80919C
:1000E000C00085FFFCCF9093C60008958091C000AA
:1000F00087FFFCCF8091C6000895AC0120E007C0C7
:100100008091C00085FFFCCFE093C6002F5FFA010D
:10011000E20FF11DE081EE2399F70895F894FFCFE7
:1001200057656C636F6D6520746F20415652205087
:0E013000726F6772616D6D696E672E0D0A0049
:00000001FF
