:100000000C9434000C943E000C943E000C943E0082
:100010000C943E000C943E000C943E000C943E0068
:100020000C943E000C943E000C943E000C943E0058
:100030000C943E000C943E000C943E000C943E0048
:100040000C943E000C943E000C943E000C943E0038
:100050000C943E000C943E000C943E000C943E0028
:100060000C943E000C943E0011241FBECFEFD8E04C
:10007000DEBFCDBF0E9440000C9430010C94000004
:100080008FE384B930E060E971E0A1E0B0E012C034
:1000900025B1CD01032E02C0880F991F0A94E2F703
:1000A000282B25B98CE291E0FB013197F1F70197FC
:1000B000D9F73F5F363060F388E893E1FB01319771
:1000C000F1F70197D9F745E050E025B1CD01042EB5
:1000D00002C0880F991F0A94E2F78095822385B9A0
:1000E0008CE291E0FB013197F1F70197D9F741508C
:1000F00050408FEF4F3F580741F788E893E1FB01ED
:100100003197F1F70197D9F720E026C0FB0131972D
:10011000F1F70197D9F72C982A9828988CED95E05B
:10012000FB013197F1F70197D9F7299A2B9A2D9A6C
:100130008CED95E0FB013197F1F70197D9F72D98F8
:100140002B9829988CED95E0FB013197F1F70197F9
:10015000D9F72F5F223031F0289A2A9A2C9A8CED09
:1001600095E0D4CF8CED95E0FB013197F1F7019745
:10017000D9F745E050E025B1CD01042E02C0880F2B
:10018000991F0A94E2F7282B25B98CE291E0FB0134
:100190003197F1F70197D9F7415050408FEF4F3F1A
:1001A000580749F788E893E1FB013197F1F7019788
:1001B000D9F740E050E025B1CD01042E02C0880FF0
:1001C000991F0A94E2F78095822385B98CE291E029
:1001D000FB013197F1F70197D9F74F5F5F4F463039
:1001E000510549F788E893E1FB013197F1F7019751
:1001F000D9F720E026C0FB013197F1F70197D9F735
:100200002D982B9829988CED95E0FB013197F1F70B
:100210000197D9F7289A2A9A2C9A8CED95E0FB0140
:100220003197F1F70197D9F72C982A9828988CEDF7
:1002300095E0FB013197F1F70197D9F72F5F223055
:1002400031F0299A2B9A2D9A8CED95E0D4CF8CED34
:1002500095E0FB013197F1F70197D9F730E018CF1E
:04026000F894FFCF40
:00000001FF
