:100000000C9434000C94D4000C9451000C945100C6
:100010000C9451000C9451000C9451000C9451001C
:100020000C9451000C9451000C9451000C9451000C
:100030000C9451000C9451000C9451000C945100FC
:100040000C9451000C9451000C9451000C945100EC
:100050000C9451000C9451000C9451000C945100DC
:100060000C9451000C94510011241FBECFEFD8E026
:10007000DEBFCDBF11E0A0E0B1E0E6EFF2E002C0EC
:1000800005900D92AC34B107D9F711E0ACE4B1E0C2
:1000900001C01D92AD34B107E1F70E9453000C94EA
:1000A00079010C9400000F931F93CF93DF938FE39C
:1000B00084B95A9A0E9413018091690082608093EA
:1000C0006900E89A789401E010E0C0E9D1E08091FD
:1000D0004B01813089F530E012C025B1C801032EF3
:1000E00002C0880F991F0A94E2F7282B25B980EBEC
:1000F00094E0FE013197F1F70197D9F73F5F363071
:1001000060F313C025B1C801032E02C0880F991FE8
:100110000A94E2F78095822385B980EB94E0FE0192
:100120003197F1F70197D9F731503F3F59F73093A5
:100130004C0180E091E031C030E012C025B1C8012F
:10014000032E02C0880F991F0A94E2F7282B25B9C5
:1001500080EB94E0FE013197F1F70197D9F73F5F0B
:10016000363060F330E013C025B1C801032E02C061
:10017000880F991F0A94E2F78095822385B980EB56
:1001800094E0FE013197F1F70197D9F73F5F3630E0
:1001900058F330934C0187E191E00E94240184E1FF
:1001A00091E00E94240193CF1F920F920FB60F92FD
:1001B00011242F933F934F935F936F937F938F936C
:1001C0009F93AF93BF93EF93FF9380E49CE90197D4
:1001D000F1F74A9917C08BE291E00E9424018091C7
:1001E0004B0191E0892780934B018DE391E00E94C0
:1001F000240180914B0190E00E94350186E491E05A
:100200000E942401FF91EF91BF91AF919F918F9137
:100210007F916F915F914F913F912F910F900FBE02
:100220000F901F9018951092C50087E68093C40028
:10023000E0ECF0E080818D7F808388E18093C100D5
:1002400086E08093C2000895AC0120E007C0809151
:10025000C00085FFFCCFE093C6002F5FFA01E20FDC
:10026000F11DE081EE2399F708959C018091C00073
:1002700085FFFCCFC90164E670E00E946501CB01F7
:100280006AE070E00E946501805D8093C600809105
:10029000C00085FFFCCFC9016AE070E00E946501E3
:1002A000CB016AE070E00E946501805D8093C6002A
:1002B0008091C00085FFFCCFC9016AE070E00E9418
:1002C0006501805D8093C6000895AA1BBB1B51E1A8
:1002D00007C0AA1FBB1FA617B70710F0A61BB70BB6
:1002E000881F991F5A95A9F780959095BC01CD015B
:0602F0000895F894FFCF11
:1002F6006D6F76654120696E2073657276696365F8
:100306002E0D0A000D0A006D6F76654220696E207B
:10031600736572766963652E0D0A00627574746F73
:100326006E20507265737365642E0D0A00636865EE
:0C033600636B203D20000D0A0D0A000141
:00000001FF
