:100000000C9434000C943E000C943E000C943E0082
:100010000C943E000C943E000C943E000C943E0068
:100020000C943E000C943E000C943E000C943E0058
:100030000C943E000C943E000C943E000C943E0048
:100040000C943E000C943E000C943E000C943E0038
:100050000C943E000C943E000C943E000C943E0028
:100060000C943E000C943E0011241FBECFEFD8E04C
:10007000DEBFCDBF0E9440000C946D000C940000C8
:1000800084B18F6384B920E061E070E040E951E021
:1000900010C0CB01022E02C0880F991F0A94E2F70C
:1000A00085B982E593E0FA013197F1F70197D9F725
:1000B0002F5F253070F3CB01022E02C0880F991FED
:1000C0000A94E2F785B982E593E0FA013197F1F7F6
:0E00D0000197D9F7215079F7ECCFF894FFCFC4
:00000001FF
