:100000000C9434000C9449000C9449000C94490061
:100010000C9449000C9449000C9449000C9449003C
:100020000C9449000C9449000C9449000C9449002C
:100030000C9449000C9449000C9449000C9449001C
:100040000C9449000C9449000C9449000C9449000C
:100050000C9449000C9449000C9449000C944900FC
:100060000C9449000C94490011241FBECFEFD8E036
:10007000DEBFCDBF11E0A0E0B1E0E8E0F2E002C0F9
:1000800005900D92AA32B107D9F70E944B000C944B
:1000900002010C940000CF93DF930E947F008091B7
:1000A0007C00806480937C0080917A0087608093DC
:1000B0007A0080917A00806880937A0080E091E0F5
:1000C0000E949000C0E9D1E080917A008064809322
:1000D0007A0080917A0086FDFCCF80917800909123
:1000E00079000E94A10086E291E00E94900088E8D9
:1000F00093E1FE013197F1F70197D9F7E5CF10921F
:10010000C50087E68093C400E0ECF0E080818D7F3D
:10011000808388E18093C10086E08093C2000895C7
:10012000AC0120E007C08091C00085FFFCCFE093C8
:10013000C6002F5FFA01E20FF11DE081EE2399F76F
:1001400008959C018091C00085FFFCCFC90160E14A
:1001500077E20E94EE00605D6093C6008091C0006F
:1001600085FFFCCFC90168EE73E00E94EE00CB0171
:100170006AE070E00E94EE00805D8093C60080918E
:10018000C00085FFFCCFC90164E670E00E94EE006C
:10019000CB016AE070E00E94EE00805D8093C600B3
:1001A0008091C00085FFFCCFC9016AE070E00E9429
:1001B000EE00CB016AE070E00E94EE00805D80936B
:1001C000C6008091C00085FFFCCFC9016AE070E0E5
:1001D0000E94EE00805D8093C6000895AA1BBB1BA1
:1001E00051E107C0AA1FBB1FA617B70710F0A61B37
:1001F000B70B881F991F5A95A9F780959095BC0158
:08020000CD010895F894FFCF31
:100208005472616E736D697474696E67204C4452E0
:1002180020526573697374616E63652056616C75ED
:0A02280065733B0D0A000D0A00008B
:00000001FF
