:100000000C9434000C9449000C9449000C94490061
:100010000C9449000C9449000C9449000C9449003C
:100020000C9449000C9449000C9449000C9449002C
:100030000C9449000C9449000C9449000C9449001C
:100040000C9449000C9449000C9449000C9449000C
:100050000C9449000C9449000C9449000C944900FC
:100060000C9449000C94490011241FBECFEFD8E036
:10007000DEBFCDBF11E0A0E0B1E0E0E3F2E002C0FE
:1000800005900D92A832B107D9F70E944B000C944D
:1000900016010C9400000F931F93CF93DF93209AC7
:1000A00080917C00806480937C0080917A00109223
:1000B0007A0080917A00876880937A000E9493008A
:1000C00080E091E00E94A40005E011E080917A00B8
:1000D000806480937A0080917A0086FDFCCFC09185
:1000E0007800D0917900CE010E94B50084E291E0C1
:1000F0000E94A400209751F3AE0112C0202F2A9530
:10010000F1F701968C179D07C8F385B1812785B952
:100110004C0F5D1FCA018C1B9D0B80509440B0F6A4
:1001200080E090E0EBCF1092C50087E68093C4009A
:10013000E0ECF0E080818D7F808388E18093C100D6
:1001400086E08093C2000895AC0120E007C0809152
:10015000C00085FFFCCFE093C6002F5FFA01E20FDD
:10016000F11DE081EE2399F708959C018091C00074
:1001700085FFFCCFC90160E177E20E940201605D6A
:100180006093C6008091C00085FFFCCFC90168EE76
:1001900073E00E940201CB016AE070E00E9402015C
:1001A000805D8093C6008091C00085FFFCCFC901AF
:1001B00064E670E00E940201CB016AE070E00E94F8
:1001C0000201805D8093C6008091C00085FFFCCF56
:1001D000C9016AE070E00E940201CB016AE070E0B0
:1001E0000E940201805D8093C6008091C00085FF5F
:1001F000FCCFC9016AE070E00E940201805D80933B
:10020000C6000895AA1BBB1B51E107C0AA1FBB1F54
:10021000A617B70710F0A61BB70B881F991F5A9592
:10022000A9F780959095BC01CD010895F894FFCF72
:100230005472616E736D697474696E67204C4452B8
:1002400020526573697374616E63652056616C75C5
:08025000650D0A000D0A000013
:00000001FF
