:100000000C9434000C943E000C943E000C943E0082
:100010000C943E000C943E000C943E000C943E0068
:100020000C943E000C943E000C943E000C943E0058
:100030000C943E000C943E000C943E000C943E0048
:100040000C943E000C943E000C943E000C943E0038
:100050000C943E000C943E000C943E000C943E0028
:100060000C943E000C943E0011241FBECFEFD8E04C
:10007000DEBFCDBF0E9440000C9461000C940000D4
:10008000209A20E040E951E011C0289A80ED97E0E5
:10009000FA013197F1F70197D9F7289880ED97E0A9
:1000A000FA013197F1F70197D9F72F5F253068F3FF
:1000B00080E89EE3FA013197F1F70197D9F720E044
:0600C000E4CFF894FFCF2D
:00000001FF
